{
  "contractName": "Lsiten",
  "abi": [
    {
      "constant": true,
      "inputs": [],
      "name": "owner",
      "outputs": [
        {
          "name": "",
          "type": "address"
        }
      ],
      "payable": false,
      "stateMutability": "view",
      "type": "function"
    },
    {
      "constant": true,
      "inputs": [],
      "name": "testNum",
      "outputs": [
        {
          "name": "",
          "type": "uint256"
        }
      ],
      "payable": false,
      "stateMutability": "view",
      "type": "function"
    },
    {
      "inputs": [],
      "payable": false,
      "stateMutability": "nonpayable",
      "type": "constructor"
    },
    {
      "constant": false,
      "inputs": [],
      "name": "_addTestNum",
      "outputs": [],
      "payable": false,
      "stateMutability": "nonpayable",
      "type": "function"
    },
    {
      "constant": true,
      "inputs": [],
      "name": "_getTestNum",
      "outputs": [
        {
          "name": "",
          "type": "uint256"
        }
      ],
      "payable": false,
      "stateMutability": "view",
      "type": "function"
    }
  ],
  "bytecode": "0x608060405234801561001057600080fd5b50336000806101000a81548173ffffffffffffffffffffffffffffffffffffffff021916908373ffffffffffffffffffffffffffffffffffffffff16021790555061024a806100606000396000f300608060405260043610610062576000357c0100000000000000000000000000000000000000000000000000000000900463ffffffff168063262befbe146100675780638da5cb5b1461007e578063a954b349146100d5578063ae28f1ed14610100575b600080fd5b34801561007357600080fd5b5061007c61012b565b005b34801561008a57600080fd5b50610093610193565b604051808273ffffffffffffffffffffffffffffffffffffffff1673ffffffffffffffffffffffffffffffffffffffff16815260200191505060405180910390f35b3480156100e157600080fd5b506100ea6101b8565b6040518082815260200191505060405180910390f35b34801561010c57600080fd5b50610115610218565b6040518082815260200191505060405180910390f35b6000809054906101000a900473ffffffffffffffffffffffffffffffffffffffff1673ffffffffffffffffffffffffffffffffffffffff163373ffffffffffffffffffffffffffffffffffffffff16141561019157600180600082825401925050819055505b565b6000809054906101000a900473ffffffffffffffffffffffffffffffffffffffff1681565b60008060009054906101000a900473ffffffffffffffffffffffffffffffffffffffff1673ffffffffffffffffffffffffffffffffffffffff163373ffffffffffffffffffffffffffffffffffffffff1614156102155760015490505b90565b600154815600a165627a7a723058200b2007ec0e3d312f2af739e59980ef2996485100ff3de1e146a6a59928fdd00b0029",
  "source": "pragma solidity >=0.4.23;\r\n\r\ncontract Lsiten {\r\n  address public owner;\r\n  uint public testNum;\r\n\r\n  constructor() public {\r\n    owner = msg.sender;\r\n  }\r\n  modifier restricted() {\r\n    if (msg.sender == owner) _;\r\n  }\r\n  /**\r\n   * function 增加testNum\r\n   */\r\n  function _addTestNum () public restricted {\r\n    testNum += 1;\r\n  }\r\n\r\n  /**\r\n   * function 获取testNum的值\r\n   */\r\n  function _getTestNum () public view restricted\r\n   returns (uint)\r\n  {\r\n    return testNum;\r\n  }\r\n}\r\n",
  "sourcePath": "D:\\dongxin\\demo\\lsiten-truffle\\contracts\\Lsiten.sol",
  "compiler": {
    "name": "solc",
    "version": "0.4.24+commit.e67f0147.Emscripten.clang"
  },
  "schemaVersion": "2.0.1",
  "updatedAt": "2018-11-27T03:26:39.077Z"
}